:020000040800F2
:1000000048050020A9010008171E0008711C0008FF
:10001000151E0008D9030008A11E000800000000FA
:100020000000000000000000000000001B1E00088F
:100030005B04000800000000191E00081D1E0008D7
:10004000C3010008C3010008C3010008C301000880
:10005000C3010008C3010008C3010008C301000870
:10006000C3010008C3010008C3010008DD03000844
:10007000C3010008C3010008C3010008C301000850
:10008000C3010008C3010008C3010008C301000840
:10009000C3010008C3010008C3010008C301000830
:1000A000C3010008C3010008C3010008C301000820
:1000B000C3010008C3010008C3010008C301000810
:1000C000C3010008C3010008C3010008C301000800
:1000D000C3010008C3010008C3010008C3010008F0
:1000E000C3010008C3010008C3010008C3010008E0
:1000F000C3010008C3010008C3010008C3010008D0
:10010000C30100080000000000000000C301000857
:10011000C3010008C3010008C3010008C3010008AF
:10012000E9030008C3010008C3010008C301000877
:10013000C3010008C3010008000000000000000027
:10014000C3010008C3010008C3010008000000004B
:10015000000000000000000000000000000000009F
:10016000C3010008C3010008C3010008C30100085F
:10017000C3010008C3010008C3010008C30100084F
:10018000C3010008C30100080000000000000000D7
:10019000C3010008DFF80CD000F07AF800480047EF
:1001A000E11E000848050020064880470648004731
:1001B000FEE7FEE7FEE7FEE7FEE7FEE7FEE7FEE717
:1001C000FEE7FEE7851E0008950100082DE9F05FB7
:1001D0000546002092469B468846064681464024B6
:1001E0001BE0284641464746224600F020F8534689
:1001F0005A46C01A914110D311461846224600F0C3
:1002000038F82D1A67EB01084F46224601200021DD
:1002100000F02FF817EB00094E41201EA4F1010455
:10022000DFDC484631462A464346BDE8F09F202A97
:1002300004DB203A21FA02F00021704721FA02F390
:10024000D040C2F120029140084319467047D2B213
:1002500001E000F8012B491EFBD270470022F6E7AF
:1002600010B513460A4604461946FFF7F0FF20462C
:1002700010BD202A04DB203A00FA02F1002070476A
:100280009140C2F1200320FA03F3194390407047D4
:10029000064C074D06E0E06840F0010394E80700D3
:1002A00098471034AC42F6D3FFF778FF20200008BF
:1002B000402000080146406A026C12F0500F03D043
:1002C000806B026B08461047016C41F400710164B9
:1002D0000168C96811F4406F0CD1417E51B9016CBD
:1002E00021F480710164016CC90403D4016C41F0F4
:1002F0000101016400F00ABB406A016C41F0400159
:100300000164416C41F00401416400F001BB406AAA
:1003100000F0FDBA70B504460068816801F0030181
:10032000012926D10168C90723D0816801F00D0198
:10033000012910D1816841F0020181602168032008
:10034000086000F0EDFE05460FE000BF00F0E8FE9B
:10035000401B022809D9206C40F010002064606C1A
:1003600040F001006064012070BD20688068C00713
:10037000ECD1002070BD000070B5044600688168B3
:1003800001F00301012902D10168C90720D1816868
:10039000104A11420DD1816841F00101816000F0E5
:1003A000BFFE05460FE000BF00F0BAFE401B02286A
:1003B00009D9206C40F010002064606C40F001000E
:1003C0006064012070BD20680068C043C007EBD1A5
:1003D000002070BD3F000080FEE70000014800F0F3
:1003E000FFBC0000BC000020014800F0F9BC000088
:1003F000000100200B4B01681422994207D20A4BDE
:100400001944B1FBF2F189000164084908E0054B89
:100410005B421944B1FBF2F18900016401490839DA
:10042000C163704708040240F8FFFDBF00000240AE
:1004300030B590F840500124AC40C56B6C60046846
:1004400063604368102B036803D099600068C26042
:1004500030BD9A600068C16030BD704770470000D1
:10046000F0B5002302684FF0A04C3E4C94B01F46FC
:10047000624501D100940DE0A24202D1CDF800C046
:1004800008E0394D394EAA4201D1009602E0B2424D
:1004900014D1009590F83C50012D12D0012580F820
:1004A0003C5095686D0753D4009DAD686D074FD4DF
:1004B000624501D0A24206D12D4A05E0012014B0C8
:1004C000F0BD0220FBE72B4A0D6840F61F7425B3F0
:1004D000956890F8306025F4604545EA46354E68E9
:1004E000354395600568AE6806F00306012E02D11B
:1004F0002D68ED0731D1009DAD6805F00305012D94
:1005000003D1009D2D68ED0727D10D6889680D4343
:100510009168A1430D4395601FE0916821F460410B
:10052000916001688D6805F00305012D02D109680D
:10053000C90712D10099896801F00301012903D18B
:1005400000990968C90708D19168A143916004E046
:10055000016C41F020010164012380F83C701846D1
:10056000ADE70000000100500004005000050050FD
:100570000003005000070050F0B594B00024009430
:1005800090F83C202546012A19D0012780F83C70BC
:1005900003689A6852077CD44A681F26052A11D23C
:1005A000D3F830C002EB4202520096402CEA060C0F
:1005B0000E6896404CEA060CC3F830C035E00220C5
:1005C00014B0F0BD0A2A0FD2D3F834C0521F02EB88
:1005D0004202520096402CEA060C0E6896404CEA05
:1005E000060CC3F834C020E00F2A0FD2D3F838C06D
:1005F0000A3A02EB4202520096402CEA060C0E68C0
:1006000096404CEA060CC3F838C00EE0D3F83CC064
:100610000F3A02EB4202520096402CEA060C0E689A
:1006200096404CEA060CC3F83CC00268936813F08D
:100630000C0F4FF0070374D1D1F800E0BEF10A0FA0
:1006400010D39669AEF10A0E0EEB4E0C03FA0CFEB7
:1006500026EA0E06D1F808E00EFA0CFE46EA0E066F
:1006600096610FE0D2F814C00EEB4E0603FA06FEB8
:100670002CEA0E0CD1F808E00EFA06FE4CEA0E0C3D
:10068000C2F814C002684E69D2F80CC0CCF3C10C99
:1006900000E0FDE04FEA4C0C06FA0CF6D1F810E051
:1006A000DFF848C2BEF1010F42D0BEF1020F4DD0BB
:1006B000BEF1030F58D0BEF1040F63D0166E91F84F
:1006C00000C006F0F846B6EB8C6F03D1166E26F02C
:1006D000004616660268566E91F800C006F0F846AD
:1006E000B6EB8C6F03D1566E26F000465666026854
:1006F000966E91F800C006F0F846B6EB8C6F03D109
:10070000966E26F0004696660268D66E91F800C096
:1007100006F0F846B6EB8C6F03D1D66E26F0004695
:10072000D6660268966806F00306012E3AD136E0D6
:10073000D2F860E00EEA0C0E91F800C046EA8C6632
:100740004EEA060E4EF000461666EAE7D2F864E07E
:100750000EEA0C0E91F800C046EA8C664EEA060ED0
:100760004EF000465666DCE7D2F868E00EEA0C0E62
:1007700091F800C046EA8C664EEA060E4EF000463E
:100780009666CEE7D2F86CE00EEA0C0E91F800C047
:1007900046EA8C664EEA060E4EF00046C0E7166842
:1007A000F6077AD1CE68012E06D052F8B03F0E7807
:1007B000B740BB43136021E052F8B06F91F800C01E
:1007C00007FA0CF73E4316600A680A2A0BD306683C
:1007D000B769093A02EB420293409F438B6893400A
:1007E0001F43B7610AE007687E69521C02EB4202B0
:1007F00093409E438B6893401E437E6103684FF095
:10080000A0473B4EBB4201D0B34201D1394A00E080
:10081000394A0968102904D0112907D012290AD0B1
:100820003BE0D2F808C04FEA0C2C08E0D2F808C030
:100830004FEACC1C03E0D2F808C04FEA4C2CBCF1C4
:10084000000F2ADBBB420DD0B34201D100970CE070
:100850002A4EDFF8ACC0B34202D1CDF800C004E0AC
:10086000634501D1009600E000959E6806F00306FE
:10087000012E02D11E68F6070AD1009E8EB1B6681D
:1008800006F00306012E0CD1009E3668F60708D04C
:10089000016C41F020010164012480F83C502046A5
:1008A0008EE6102908D011291AD01229F5D19168A5
:1008B00041F480019160F0E7BB42EED1916841F4D0
:1008C000000191600F49104A0968B1FBF2F101EB98
:1008D0008101490000E0491E00910029FBD1DCE7BD
:1008E000BB42DAD1916841F08071E3E700F0FF8309
:1008F00000010050000300500007005000040050A9
:10090000000500501800002040420F00704770475B
:1009100070470000F0B54FF0000695B00400374670
:100920003546009605D0206CC00648D4206C18B11E
:1009300033E0012015B0F0BD6564E564A56484F87A
:100940003C50204600F022F920688068C00024D482
:100950002046FFF7DFFC0646206CC0061DD4E6B932
:10096000206C20F4885040F00200206420688168E8
:1009700021F0405181602068816841F080518160A0
:1009800079487A490068B0FBF1F000EB8000400044
:1009900000E0401E00900028FBD120688168C9005B
:1009A00002D5806880000AD5206C20F0020040F05B
:1009B00010002064606C40F0010060640126206C2F
:1009C000C00672D4002E70D12068816849076CD4AB
:1009D000216C21F4807141F0020121644FF0A04E9E
:1009E000634B704501D0984201D1624A00E0624AEF
:1009F000DFF888C16249704501D100930EE098424A
:100A000002D1CDF800E009E0884202D1CDF800C063
:100A100004E0604501D1009100E00095836803F097
:100A20000303012B02D10068C00710D1009840B128
:100A3000806800F00300012803D100980068C00717
:100A400005D19068636820F4403018439060D4E981
:100A500002201043626B012A02D04FF4805300E061
:100A60000023627E43EA4233184394F8203038432F
:100A7000012B0AD1D2B1226C22F0020242F02002F4
:100A80002264626C42F001026264A26A012A37D0D9
:100A900023688B4201D063452DD14FF430714FF460
:100AA000E0778A420AD13A4627E053E0A28C354BE0
:100AB00003EB4242024342F48030E6E74FF4807396
:100AC0009A4201D10A4618E0BA4201D11A4614E00E
:100AD000B2F58A5F06D0B2F5845F06D0B2F5865FC4
:100AE00006D00AE04FF4707207E04FF4A07204E001
:100AF0004FF4C07201E022F480520243E06A1043D6
:100B000021688A6812F00C0F0BD1CA6844F2020304
:100B10009A43CA60217E94F83020890341EA420159
:100B200008432268D168184B19400143D1602069FD
:100B300001282068016B21F00F0102D1E269521EE9
:100B4000114301636564206C20F0020040F0010055
:100B5000206406E0206C20F0020040F010002064C9
:100B600001263046E6E600001800002040420F0053
:100B70000001005000030050000700500005005025
:100B8000000400500000FEFF07C0F0FF2DE9F04711
:100B900086B0054614216846FFF760FB374AD5F852
:100BA00000C000241068032780263549401C4FF000
:100BB00090434FF480794FF4806ABCF1A04F07D086
:100BC000DFF8C080C4452BD1106001282BD032E063
:100BD0001060012807D1486940F080504861486999
:100BE00000F080500590486940F400304861486941
:100BF000694600F4003005900120CDE90007029419
:100C0000184600F0A1F9214F1F48E7E802041F48E9
:100C1000A7E8500647F81849FC6128E0AF637D62F9
:100C200006B0BDE8F087486940F0805048614869E7
:100C300000F080500590486940F4003048614869F0
:100C4000694600F4003005901020CDE900070294B9
:100C5000184600F079F90D4F0D484437E7E80204D3
:100C60000A48A7E85006443047F81849FC6100F0EC
:100C70000BF90028D2D0FFF7F1FBCFE708000020E6
:100C8000001002400001005008000240BC0000209B
:100C9000080402402DE9F05F044600688B46924646
:100CA000816849077ED494F83C1001290ED00121B7
:100CB0004FF0A048DFF81091444F84F83C104045B5
:100CC00001D0B84205D1D8F8080304E00220BDE8FD
:100CD000F09FD9F800004FF0000610F01F0F01D070
:100CE000012504E02046FFF747FB050002D084F809
:100CF0003C6066E0206C40F60161884340F48070FF
:100D0000206420684146884201D0B84202D1D1F81F
:100D1000082301E0D9F8002012F01F0F04D0884208
:100D200002D02B4A904207D1216C21F4801121641A
:100D3000C06880010ED413E0226C42F48012226459
:100D4000B84201D1C86802E021480C30006810F0B8
:100D5000007F05D0206C20F4005040F480502064C7
:100D6000206CC00404D5606C20F00600606400E0D4
:100D7000666484F83C60A16B16488862A16B1648D3
:100D8000C862A16B1548086321681C2008602068B0
:100D9000416841F0100141602068C16841F00101E3
:100DA000C16000E00CE0216853465A464031A06B18
:100DB00000F091F82068816841F00401816000E052
:100DC0000225284683E70000080700500001005074
:100DD00000040050B50200080F030008F9020008E3
:100DE000F0B4C16B0D6801680C68066C042202FA4D
:100DF00006F32B420FD063070DD50B689B0603D477
:100E00000B6823F004030B6090F840108A40C16B1C
:100E10004A60C16A1BE0022303FA06F72F424FF033
:100E2000000C4FF0010216D0A70714D50C68A406D9
:100E300005D40C6824F00A040C6080F8212090F896
:100E400040108B40C16B4B6080F820C0816A002944
:100E500018D0F0BC08470823B3402B4212D0230718
:100E600010D50B6823F00E030B6090F84010C36B95
:100E700002FA01F15960826380F8212080F820C0D5
:100E8000016BE4E7F0BC704770B5040021D002208C
:100E900084F821002268116843F6F0708143D4E998
:100EA00001031843D4E903352B43184363691843FE
:100EB000A3691843E3691843084310602046FFF70D
:100EC00099FA0020A063012184F8211084F8200001
:100ED00070BD012070BD70B5044690F8200000255B
:100EE00001280CD0012084F8200094F82160002013
:100EF000012E06D084F820000225284670BD02206D
:100F000070BD022684F82160A0632068066826F080
:100F1000010606602046FFF78BFAE06A0028206889
:100F2000016802D041F00E0106E041F00A010160C3
:100F30002068016821F0040101602068016841F027
:100F400001010160D9E700002DE9F84FDFF8A0B1F9
:100F5000002301274FF0030A4FF00F090BF1040E95
:100F6000BEE000BF07FA03F63440220072D04C689E
:100F7000022C01D0122C12D1DC0800EB840CDCF81E
:100F800020405D07ED0E09FA05F824EA0804D1F8BF
:100F9000108008FA05F848EA0408CCF82080D0F858
:100FA00000805D0091F804C00AFA05F40CF0030C0F
:100FB00028EA04080CFA05FC4CEA080CC0F800C04A
:100FC000D1F804C0BCF1010F08D0BCF1020F05D06C
:100FD000BCF1110F02D0BCF1120F16D1D0F808C02D
:100FE000D1F80C802CEA040C08FA05F848EA0C0841
:100FF000C0F80880D0F804C02CEA060C0E79C6F3BD
:1010000000169E4046EA0C064660C668A6438C68F9
:10101000AC403443C4604C68E40060D5354CA569ED
:1010200045F00105A561A46923F0030504F001045E
:101030000094314C2E19B4689D074FEA157C09FACB
:101040000CF5AC43B0F1904F05D02C4DA84204D123
:1010500001251CE043E0002519E0294DA84201D1FB
:10106000022514E0274DA84201D103250FE0264DAB
:10107000A84201D104250AE0244DA84201D105254A
:1010800005E0234DA84201D1062500E0072505FA19
:101090000CF52543B560DBF800405D464E6894438F
:1010A000F60300D514432C60DEF8004075464E6808
:1010B0009443B60300D514432C600D4D08352C68BD
:1010C0004E689443F60200D514432C60084D0C354D
:1010D0002C684E689443B60200D514432C605B1C08
:1010E0000A681446DA407FF43DAFBDE8F88F00008F
:1010F00000040140001002400000014000040048CC
:1011000000080048000C0048001000480014004887
:10111000001800480AB18161704781627047000081
:1011200001488068704700000C0000200248816878
:1011300002781144816070470C000020074810B508
:10114000016841F010010160032000F06DF80020FB
:1011500000F006F800F024F8002010BD0020024046
:1011600070B50D4D04464FF47A712878B1FBF0F05C
:101170000A490968B1FBF0F000F066FD48B9102C8F
:1011800007D200222146501E00F02EF800206C608D
:1011900070BD012070BD00000C0000201800002070
:1011A000094808B5816941F001018161816901F057
:1011B00001010091C16941F08051C161C06900F035
:1011C0008050009008BD000000100240002809DB9C
:1011D00000F01F02012191404009800000F1E02051
:1011E000C0F8001170470000F0B40E4B1B680C46AD
:1011F000C3F30223C3F10705042D00D90425191DEB
:10120000072901D2002300E0DB1E012606FA05F1C2
:10121000491E214099409E40761E16403143F0BC45
:1012200000F03FBE0CED00E0064900F00702086840
:101230004FF6FF03184040EA0220034A10430860BB
:10124000704700000CED00E00000FA052DE9F84FB2
:10125000044600689F4DC0036FD5E8690026C000B2
:1012600008D4E86940F08050E861E869012600F0A0
:101270008050009098480168C90512D401688046E2
:1012800041F480710160FFF74BFF074605E000BFA6
:10129000FFF746FFC01B642835D8D8F80000C0050A
:1012A000F6D5286A10F4407053D0A18801F440713B
:1012B00081424ED0286A4FF4803191FAA1F2B2FAFD
:1012C00082F29700854A4FF00108174420F44070DD
:1012D000C7F8008491FAA1F1B1FA81F102EB810122
:1012E0000023C1F800342862C00732D0FFF718FF8E
:1012F000074641F2883A4FF0020907E0FFF710FF76
:10130000C11B514502D90320BDE8F88F99FAA9F114
:10131000B1FA81F141F040024846B8EB521F01D1C9
:101320002A680CE090FAA0F2B2FA82F242F040028F
:10133000B0EB521F02D12A6A01E015E06A6A99FAFD
:10134000A9F0B0FA80F000F01F0008FA00F10A429C
:10135000D4D0286A616820F44070084328621EB126
:10136000E86920F08050E8612078C00705D0286B3C
:10137000A16820F00300084328632078800705D582
:10138000286BE16820F44030084328632078400748
:1013900005D5286B216920F4402008432863207874
:1013A000800605D5286BE16920F01000084328630A
:1013B0002068800305D56868616D20F480000843CB
:1013C00068602078400605D5286B216A20F020004F
:1013D000084328632068400305D5286B616A20F024
:1013E0004000084328632078000705D5286B616911
:1013F00020F44010084328632078C00605D5286BE8
:10140000A16920F44000084328632088800505D5A1
:101410006868216B20F400000843686020780006AB
:1014200005D5E86AA16A20F4F8700843E8622088CC
:10143000C00505D5E86AE16A20F478500843E862FF
:101440002088C00405D5286B616B20F480700843A8
:1014500028632088800405D5286B216C20F4007057
:10146000084328632068C00205D5286BA16B20F0D3
:101470008070084328632068800205D5286BE16BE3
:1014800020F00070084328632068400205D5286BCF
:10149000616C20F48060084328632068000205D551
:1014A000286BA16C20F40060084328632068C00109
:1014B00005D5286BE16C20F40050084328632068B0
:1014C000800105D5286B216D20F400400843286376
:1014D000002019E700100240007000400000424266
:1014E0002DE9F0470F46050069D04A4E306800F0FC
:1014F0000700B84209D2306820F007003843306056
:10150000306800F00700B84259D12878424C800773
:1015100005D56068A96820F0F0000843606028786D
:10152000C0073DD06968012001290DD0022923D0D0
:101530005FF0020393FAA3F2B2FA82F242F02002C1
:10154000520904D0226803E04FF40033F2E7626AE4
:1015500093FAA3F3B3FA83F303F01F039840024214
:101560002DD0606820F0030008436060FFF7D8FDCD
:10157000804641F288390CE04FF00073DAE700BF93
:10158000FFF7CEFDA0EB0801494502D90320BDE8D5
:10159000F0876068696800F00C00B0EB810FEFD154
:1015A000306800F00700B8420BD9306820F007001F
:1015B00038433060306800F00700B84201D00120A5
:1015C000E5E72878400705D56068E96820F4E06021
:1015D000084360602878000706D56068296920F410
:1015E000605040EAC100606000F01EF86168F022BF
:1015F00092FAA2F201F0F001B2FA82F2D140074A67
:10160000515CC8400649086006480068FFF7A8FD1D
:101610000020BCE70020024000100240102000081B
:101620001800002010000020144A10B5516814481A
:1016300001F00C03042B1FD0082B1DD14FF47014A4
:1016400094FAA4F401F47013B4FA84F4E3400D4C5A
:10165000D26AE45C0F2393FAA3F302F00F02B3FA09
:1016600083F3DA40074BC90310339A5C0023194611
:10167000FEF7ACFDA0FB040110BD0000001002400D
:1016800000127A00F01F00082DE9F84F04007DD009
:101690002078FA4DC0074FF0010637D0686877040C
:1016A000C0F38100012819D06868C0F381000228C6
:1016B00004D16868C0F3C13002280FD06068B0F56B
:1016C000803F24D010B1B0F5A02F2AD0286820F494
:1016D00080302860286820F480201BE097FAA7F06B
:1016E000B0FA80F040F02000400901D0286800E006
:1016F000686A97FAA7F1B1FA81F101F01F0106FAC1
:1017000001F108424ED060680028C0D04AE0286845
:1017100040F480302860606820B3FFF701FD804608
:101720000AE0286840F480202860F0E7FFF7F8FC22
:10173000A0EB0800642873D897FAA7F0B0FA80F0FD
:1017400040F02000400901D0286800E0686A97FA5C
:10175000A7F1B1FA81F101F01F0106FA01F1084287
:10176000E4D01FE0FFF7DCFC804605E0FFF7D8FC83
:10177000A0EB08006428DED897FAA7F0B0FA80F052
:1017800040F02000400902D0286801E0B9E0686A12
:1017900097FAA7F1B1FA81F101F01F0106FA01F100
:1017A0000842E3D12078DFF8D88280074FF0000AA2
:1017B0004FF002075DD568684FF0F80B10F00C0F82
:1017C00015D06868C0F38100022804D16868C0F3AE
:1017D000C13001280BD0E068A0B396FAA6F0B0FAA9
:1017E00080F048F82060FFF79BFC814620E097FAE4
:1017F000A7F0B0FA80F040F02000400901D028683E
:1018000000E0686A97FAA7F1B1FA81F101F01F01CF
:1018100006FA01F1084221D0E068012871D11DE0EB
:1018200056E100BFFFF77CFCA0EB09000228A2D81C
:1018300097FAA7F0B0FA80F040F02000400902D0FB
:10184000286801E016E0686A97FAA7F1B1FA81F119
:1018500001F01F0106FA01F10842E3D028689BFA63
:10186000ABF22169B2FA82F220F0F800914008430D
:10187000286024E096FAA6F1B1FA81F148F821A097
:10188000FFF74EFC814605E0FFF74AFCA0EB09009C
:101890000228CCD897FAA7F0B0FA80F040F02000E8
:1018A000400901D0286800E0686A97FAA7F1B1FA08
:1018B00081F101F01F0106FA01F10842E4D120781C
:1018C00000076AD56069A0B396FAA6F0B0FA80F076
:1018D00008EB8000C0F88064FFF722FC814605E039
:1018E000FFF71EFCA0EB09000228A0D897FAA7F08A
:1018F000B0FA80F040F06000B6EB501F02D12868CB
:101900000CE09DE197FAA7F0B0FA80F040F060009B
:10191000B7EB501F01D1286A00E0686A97FAA7F177
:10192000B1FA81F101F01F0106FA01F21042D7D09D
:1019300033E0FFE796FAA6F0B0FA80F008EB8000FB
:10194000C0F880A4FFF7ECFB814605E0FFF7E8FB59
:10195000A0EB090002289CD897FAA7F0B0FA80F013
:1019600040F06000B6EB501F01D128680BE097FAF9
:10197000A7F0B0FA80F040F06000B7EB501F01D143
:10198000286A00E0686A97FAA7F1B1FA81F101F0DC
:101990001F0106FA01F21042D8D12078400774D511
:1019A000E8694FF00009C00009D4E86940F08050B0
:1019B000E861E8694FF0010900F08050009031487B
:1019C0000168C90512D4016841F480710160FFF714
:1019D000A7FB834606E000BFFFF7A2FBA0EB0B00CE
:1019E000642875D827480068C005F5D5A068012887
:1019F0000AD008B1052811D0286A20F00100286219
:101A0000286A20F0040002E0286A40F00100286201
:101A1000A068C8B3FFF784FB83460DE0286A40F056
:101A200004002862F0E700BFFFF77AFBA0EB0B0190
:101A300041F2883081424BD897FAA7F0B0FA80F093
:101A400040F04000B6EB501F01D128680BE097FA38
:101A5000A7F0B0FA80F040F04000B7EB501F01D182
:101A6000286A00E0686A97FAA7F1B1FA81F101F0FB
:101A70001F0106FA01F21042D6D035E000100240F4
:101A8000000042420070004000E034E0FFF748FBF5
:101A9000834607E0FFF744FBA0EB0B0141F28830DF
:101AA000814215D897FAA7F0B0FA80F040F04000D4
:101AB000B6EB501F01D128680CE097FAA7F0B0FAF6
:101AC00080F040F04000B7EB501F02D1286A01E0DF
:101AD00089E0686A97FAA7F1B1FA81F101F01F0174
:101AE00006FA01F21042D5D1B9F1000F03D0E8692E
:101AF00020F08050E861A06980B36968C1F381017A
:101B0000022973D04FF080714F000228524609D04D
:101B100091FAA1F0B0FA80F048F82020FFF700FB1E
:101B2000044664E091FAA1F0B0FA80F08A46C1461A
:101B300048F82020FFF7F4FA804605E0FFF7F0FAB6
:101B4000A0EB080002284ED897FAA7F0B0FA80F070
:101B500040F02000400902D0286801E072E0686A85
:101B600097FAA7F1B1FA81F101F01F0106FA01F12C
:101B70000842E3D1E86A616A20F00F000843E86296
:101B8000D4E907100843696821F4761108436860B6
:101B90009AFAAAF0B0FA80F049F82060FFF7C0FA8C
:101BA000044604E0FFF7BCFA001B02281BD897FA92
:101BB000A7F0B0FA80F040F02000400901D028687A
:101BC00000E0686A97FAA7F1B1FA81F101F01F010C
:101BD00006FA01F10842E5D034E000BFFFF7A0FAB1
:101BE000001B022803D90320BDE8F88F15E097FAFF
:101BF000A7F0B0FA80F040F02000400901D028683A
:101C000000E0686A97FAA7F1B1FA81F101F01F01CB
:101C100006FA01F10842E1D114E00128E4D0686835
:101C2000E96AE36900F4C0329A4209D1226A00F4F9
:101C30007010904204D101F00F00616A884201D017
:101C40000120D1E70020CFE710B5401EB0F1807F22
:101C500001D3012010BD4FF0E02460610F21601717
:101C600000F01FF90020A06107202061002010BDB6
:101C7000FEE7000030B589B00024069407941821CF
:101C800068460894FEF7EAFA18484FF0A04101258B
:101C9000C0E9001484600461447680F82040C0E903
:101CA0000A54C561C46080F8304004214161047663
:101CB0004463FEF72FFE08B1FEF7D0FB06A90B48E0
:101CC0000694FEF7CDFB08B1FEF7C8FB0095039420
:101CD000CDE901540494694604480594FEF74CFC90
:101CE000002801D0FEF7BAFB09B030BD1C0000206F
:101CF00030B587B018216846FEF7B0FA1548144988
:101D00000024C0E9001484600461447680F8204017
:101D10000125C0E90A54C561C46080F8304004213F
:101D2000416104764463FEF7F5FD08B1FEF796FBCA
:101D300000950394CDE9015404946946054805943F
:101D4000FEF71AFC002801D0FEF788FB07B030BD73
:101D5000000100506C000020114808B5416941F0B5
:101D600001014161416901F001010091416941F0C6
:101D7000020141614069002200F00200009011461A
:101D80000B20FFF731FA0B20FFF720FA0022114653
:101D90003820FFF729FABDE808403820FFF716BAC7
:101DA0000010024030B587B014216846FEF756FA9D
:101DB0001648416941F480014161416901F48001A3
:101DC0000591416941F400314161416901F40031FB
:101DD0000591416941F48021416140690C4D00F455
:101DE00080204EF202040590002221462846FFF78B
:101DF00091F9012000210094CDE901010391694688
:101E00002846FFF7A1F807B030BD000000100240DF
:101E100000040048FEE7704770477047FFF786B937
:101E200030B5A5B0282116A8FEF718FA142120A86D
:101E3000FEF714FA58216846FEF710FA0120010453
:101E4000CDE916010225199000241C954FF4E010ED
:101E50001F94CDE91D1016A8FFF716FC0F20CDE941
:101E600020056802CDE92240022120A82494FFF732
:101E700037FB8020009040000A906846FFF7E6F9A3
:101E800025B030BD0548016841F470010160034987
:101E90004FF00060803908607047000088ED00E076
:101EA000FEE70907090E002804DB00F1E02080F8B6
:101EB0000014704700F00F0000F1E02080F8141DBE
:101EC000704702E008C8121F08C1002AFAD1704703
:101ED0007047002001E001C1121F002AFBD17047AA
:101EE000FFF72CF9FFF79CFFFFF75CFFFFF734FFCC
:101EF000FFF7C0FEFFF7FCFEDFF8E480394C4FF43B
:101F00007A794FF47A6A08F104054FF4487B01228C
:101F100033493548FEF7BEFE31490122091D3348D9
:101F2000FEF7B8FED8F800004F46A0F5FA60464626
:101F3000B8420BD800224FF400412046FFF7EAF8E0
:101F400000224FF480412046FFF7E4F82868A0F50E
:101F5000FA60B8420AD800224FF400512046FFF739
:101F6000D9F8002202212046FFF7D4F830685746FE
:101F7000B8420AD300224FF400412046FFF7CAF8C6
:101F8000012291032046FFF7C5F830685E46B04253
:101F90000AD80122D1032046FFF7BCF800224FF4F3
:101FA00080412046FFF7B6F82868B8420AD30022DD
:101FB0004FF400512046FFF7ADF8012202212046E0
:101FC000FFF7A8F82868B042A1D8012251032046A3
:101FD000FFF7A0F8002202212046FFF79BF896E7C2
:101FE00000000020000400481C0000206C000020BD
:101FF00002030405060708090A0B0C0D0E0F10104A
:102000000102030405060708090A0B0C0D0E0F1048
:102010000000000000000000010203040607080998
:1020200040200008000000201C000000C21E000824
:102030005C2000081C0000202C050000D21E0008B7
:10204000000000000000000000000000010000008F
:0C205000100000000000000000127A00E8
:040000050800019559
:00000001FF
